{
  "contractName": "CMCEnabled",
  "abi": [
    {
      "constant": false,
      "inputs": [
        {
          "name": "_CMC",
          "type": "address"
        }
      ],
      "name": "setCMCAddress",
      "outputs": [
        {
          "name": "success",
          "type": "bool"
        }
      ],
      "payable": false,
      "stateMutability": "nonpayable",
      "type": "function"
    },
    {
      "constant": false,
      "inputs": [],
      "name": "kill",
      "outputs": [],
      "payable": false,
      "stateMutability": "nonpayable",
      "type": "function"
    }
  ],
  "bytecode": "0x6060604052341561000f57600080fd5b6102638061001e6000396000f30060606040526004361061004c576000357c0100000000000000000000000000000000000000000000000000000000900463ffffffff16806321b523dd1461005157806341c0e1b5146100a2575b600080fd5b341561005c57600080fd5b610088600480803573ffffffffffffffffffffffffffffffffffffffff169060200190919050506100b7565b604051808215151515815260200191505060405180910390f35b34156100ad57600080fd5b6100b56101a5565b005b6000806000809054906101000a900473ffffffffffffffffffffffffffffffffffffffff1673ffffffffffffffffffffffffffffffffffffffff161415801561014d57506000809054906101000a900473ffffffffffffffffffffffffffffffffffffffff1673ffffffffffffffffffffffffffffffffffffffff163373ffffffffffffffffffffffffffffffffffffffff1614155b1561015b57600090506101a0565b816000806101000a81548173ffffffffffffffffffffffffffffffffffffffff021916908373ffffffffffffffffffffffffffffffffffffffff160217905550600190505b919050565b6000809054906101000a900473ffffffffffffffffffffffffffffffffffffffff1673ffffffffffffffffffffffffffffffffffffffff163373ffffffffffffffffffffffffffffffffffffffff161415156101fd57fe5b6000809054906101000a900473ffffffffffffffffffffffffffffffffffffffff1673ffffffffffffffffffffffffffffffffffffffff16ff00a165627a7a72305820412a1c32b68453ee06d0c78926de8e0756b1abb10222075bad6fcec528dae16d0029",
  "source": "pragma solidity ^0.4.19;\n\nimport './Ownable.sol';\n\n/**\n * Base class for every contract (DB, Controller, ALC,)\n * Once the CMC address being used by our newly added contract is set it can not be set again\n**/\n\ncontract CMCEnabled {\n    address CMC;\n\n    function setCMCAddress(address _CMC) external returns (bool success) {\n        if (CMC != 0x0 && msg.sender != CMC) {\n            return false;\n        } else {\n            CMC = _CMC;\n            return true;\n        }\n    }\n\n    function kill() external {\n        assert(msg.sender == CMC);\n        selfdestruct(CMC);\n    }\n}\n",
  "sourcePath": "/home/altstreet/Documents/contract-manager-solidity/contracts/CMCEnabled.sol",
  "compiler": {
    "name": "solc",
    "version": "0.4.19+commit.c4cbbb05.Emscripten.clang"
  },
  "schemaVersion": "2.0.0",
  "updatedAt": "2018-04-02T02:15:44.154Z"
}