{
  "contractName": "CMCPermissions",
  "abi": [
    {
      "constant": false,
      "inputs": [
        {
          "name": "_CMC",
          "type": "address"
        }
      ],
      "name": "setCMCAddress",
      "outputs": [
        {
          "name": "success",
          "type": "bool"
        }
      ],
      "payable": false,
      "stateMutability": "nonpayable",
      "type": "function"
    },
    {
      "constant": false,
      "inputs": [],
      "name": "kill",
      "outputs": [],
      "payable": false,
      "stateMutability": "nonpayable",
      "type": "function"
    }
  ],
  "bytecode": "0x6060604052341561000f57600080fd5b6102638061001e6000396000f30060606040526004361061004c576000357c0100000000000000000000000000000000000000000000000000000000900463ffffffff16806321b523dd1461005157806341c0e1b5146100a2575b600080fd5b341561005c57600080fd5b610088600480803573ffffffffffffffffffffffffffffffffffffffff169060200190919050506100b7565b604051808215151515815260200191505060405180910390f35b34156100ad57600080fd5b6100b56101a5565b005b6000806000809054906101000a900473ffffffffffffffffffffffffffffffffffffffff1673ffffffffffffffffffffffffffffffffffffffff161415801561014d57506000809054906101000a900473ffffffffffffffffffffffffffffffffffffffff1673ffffffffffffffffffffffffffffffffffffffff163373ffffffffffffffffffffffffffffffffffffffff1614155b1561015b57600090506101a0565b816000806101000a81548173ffffffffffffffffffffffffffffffffffffffff021916908373ffffffffffffffffffffffffffffffffffffffff160217905550600190505b919050565b6000809054906101000a900473ffffffffffffffffffffffffffffffffffffffff1673ffffffffffffffffffffffffffffffffffffffff163373ffffffffffffffffffffffffffffffffffffffff161415156101fd57fe5b6000809054906101000a900473ffffffffffffffffffffffffffffffffffffffff1673ffffffffffffffffffffffffffffffffffffffff16ff00a165627a7a723058206a9195c02ee7b8a497e7fc88894711c58aaebb8fe7256bc41f8a3f93ac7ddcd70029",
  "source": "pragma solidity ^0.4.19;\n\nimport './CMCEnabled.sol';\nimport './ContractProvider.sol';\n\ncontract CMCPermissions is CMCEnabled {\n    modifier isEntryPointEnabled {\n        if (CMC != 0x0 && msg.sender != ContractProvider(CMC).contracts(\"UserEntry\")) revert();\n        _;\n    }\n\n    modifier isCMCEnabled(string _name) {\n        if(CMC != 0x0 && msg.sender != ContractProvider(CMC).contracts(_name)) revert();\n        _;\n    }\n}\n",
  "sourcePath": "/home/altstreet/Documents/contract-manager-solidity/contracts/CMCPermissions.sol",
  "compiler": {
    "name": "solc",
    "version": "0.4.19+commit.c4cbbb05.Emscripten.clang"
  },
  "schemaVersion": "2.0.0",
  "updatedAt": "2018-04-02T02:15:44.162Z"
}